:020000040800F2
:1000000048060020C13D0008993C00089B3C0008C0
:100010009D3C00089F3C0008A13C00080000000037
:10002000000000000000000000000000A33C0008E9
:10003000A53C000800000000A73C0008A93C0008FF
:10004000D93D0008DD3D0008E13D0008E53D000820
:10005000E93D0008ED3D0008F13D0008F53D0008D0
:10006000F93D0008FD3D0008013E0008053E00087E
:10007000093E00080D3E0008113E0008153E00082C
:10008000193E00081D3E0008AD3C0008213E000856
:10009000253E0008293E00082D3E0008313E00089C
:1000A000353E0008393E00083D3E0008413E00084C
:1000B000453E0008493E00084D3E0008513E0008FC
:1000C000553E0008593E00085D3E0008613E0008AC
:1000D000653E0008B33C0008693E00086D3E00081C
:1000E000713E0008753E0008793E00087D3E00081C
:1000F000813E0008853E0008893E00088D3E0008CC
:10010000913E0008953E0008993E00089D3E00087B
:10011000A13E0008A53E0008A93E0008AD3E00082B
:10012000B93C0008B13E0008B53E0008B93E0008E1
:10013000BD3E0008C13E0008C53E0008C93E00089B
:10014000CD3E0008D13E0008D53E0008D93E00084B
:10015000DD3E0008E13E0008E53E0008E93E0008FB
:10016000ED3E0008F13E0008F53E0008F93E0008AB
:10017000FD3E0008013F0008053F000800000000A8
:10018000093F00080D3F0008113F0008153F000817
:10019000193F00081D3F0008213F0008253F0008C7
:1001A000293F00082D3F0008313F000840F02000A3
:1001B00070472DE9F14FB0B0924604910DF1420124
:1001C0003A9A2B9199464A7000200AE01AF8011BCE
:1001D0000498309A90470028049000F043860D98C8
:1001E000401C0D909AF8000050B12528EED1002255
:1001F00000210792089109920A910B920C9104E058
:100200000D9800F031BE41F001011AF8010F2028CD
:10021000F9D023280CD02B2804D02D2805D0302845
:1002200009D00BE041F00201EFE741F00401ECE7F7
:1002300041F00801E9E741F01001E6E72A280FD173
:10024000D9F8002052F8040BC9F8002000280F90BC
:1002500003D540420F9041F004010AF1010A14E075
:100260000F92DFF80C0C0AE00F9C844205DA04EBD5
:10027000840302EB4302303A0F920AF1010A9AF822
:100280000020A2F130030A2BEED39AF800202E2A88
:1002900003D04FF0FF300E9029E01AF8010F2A2802
:1002A00009D1D9F8002052F8040BC9F800200E90AB
:1002B0000AF1010A1BE02D280CBF0AF1010A0020F7
:1002C00000220E92DFF8A85B0BE040B90E9BAB4218
:1002D00005DA03EB830402EB4402303A0E920AF192
:1002E000010A9AF80020A2F130030A2BEDD3ADF8F1
:1002F00040100FF680309AF8001000F0D1FE08B1DF
:100300001AF8010B8DF842009DF84200682805D1CB
:100310009AF8001068290CD1622006E06C2804BF0E
:100320009AF800106C2904D171208DF842000AF16E
:10033000010A12AA06921AF801BBBBF125002CD0C3
:100340001C3800F09781001F022840F29381133877
:1003500000F0BA84093800F08D81801E00F04F85CE
:10036000401E00F0FC84401E022840F28381001FE2
:1003700000F0F584401F00F0F280401E00F0A484DD
:10038000401E00F0DA80C01E0ED0801E00F09C845B
:10039000C01E00F0998400F03DBD01222521079286
:1003A0008DF8481000F042BDD9F8000050F8044B19
:1003B000C9F80000002C059440F0AB802B994878D8
:1003C000002800F0A1804FF0FF340FF6B02000F0BD
:1003D00077FE241A40F0468500F028BD01236A46C6
:1003E00002A9304600F00CFE002840F03B85641E58
:1003F000F4D13096079C12AE74B1309F16F8011BF1
:100400000498B8470028049000F02C850D98401CF3
:10041000641E0D90F2D130970A9C3021002C8DF88B
:1004200000100CDD309E01236A4602A9304600F020
:10043000E7FD002840F01685641EF4D13096059E35
:10044000089C74B1309F16F8011B0498B847002827
:10045000049000F007850D98401C641E0D90F2D1A9
:1004600030970B9C3021002C8DF800100CDD309E55
:1004700001236A4602A9304600F0C2FD002840F080
:10048000F184641EF4D1309605980899099C4618A9
:1004900074B1309F16F8011B0498B84700280490E7
:1004A00000F0E0840D98401C641E0D90F2D130974E
:1004B0000C9C3021002C8DF800100CDD309E0123A7
:1004C0006A4602A9304600F09BFD002840F0CA842D
:1004D000641EF4D130969DF8400041077FF582AE4E
:1004E0002020002D8DF800007FF77CAE309C01238A
:1004F0006A4602A9204600F083FD002840F0B2843D
:100500006D1EF4D130946DE60FF65430059000F076
:100510008DBC0E9D002D04D5204600F0F1FD044653
:1005200008E02A460021204600F0F4FD002814BF10
:10053000041B2C46089400F079BCD9F8001051F83F
:10054000040BC9F8001020F00002002121F0FF3355
:10055000CDE9022312AC0594782100F04CBC2B9914
:10056000487820B14FF0FF340FF6C4202FE79DF8F4
:100570004200622860D0682817D06A283FD06C28D3
:1005800006D0712847D074282CD07A281DD062E07C
:10059000D9F8001051F8040BC9F80010002866D1F2
:1005A0004FF0FF340FF6A02011E7D9F8001051F8F2
:1005B000040BC9F8001020B94FF0FF340FF6882063
:1005C00005E70D99018000F031BCD9F8001051F811
:1005D000040BC9F80010002849D14FF0FF340FF682
:1005E0006820F4E6D9F8001051F8040BC9F800109F
:1005F00000283CD14FF0FF340FF64C20E7E6D9F845
:10060000001051F8040BC9F8001080B94FF0FF3406
:100610000FF63420DBE6D9F8001051F8040BC9F8C6
:10062000001020B94FF0FF340FF61C20CFE60D9AD2
:10063000D317C0E90023F9E3D9F8001051F8040BEF
:10064000C9F8001020B94FF0FF340FF6FC10BEE6D9
:100650000D990170EAE3D9F8001051F8040BC9F8BC
:10066000001020B94FF0FF340FF6DC10AFE60D9903
:100670000160DBE39DF842004C2807BFD9F8001069
:10068000CA1DD9F80000C21D22F00702C9F80020D7
:10069000D2E900010832C9F80020CDE90201C80FF3
:1006A00002D007982D210AE0BDF84010880702D536
:1006B00007982B2103E0C80705D50798202112AA27
:1006C0001154401C079012A807994BF0200300EB2F
:1006D000010CDDE90201CDE92C01612BCDF814C03C
:1006E00021AC0BD00E98002848BF062105D404BFCA
:1006F0004BF02000672801D101210E91DDE902674E
:100700007B0043EAD6735A15DB174FF0FF30834264
:1007100008BF824210D13F0347EA16573603002F25
:1007200008BF002E08D0ABF1610503211A2D0891F6
:1007300018D30FF6341110E0DDE902014A0052151A
:1007400012F1010F11D108030FD1ABF161050321A3
:100750001A2D08911FD30FF618110322604600F0DE
:1007600005FD63E30FF6FC01F7E7DDE902016A46E8
:1007700000F050FDCDE902014BF02000612811D1BD
:10078000059830220270811C0591BBF1610F0CBFEE
:100790007821582102E00FF6D401DEE74170079876
:1007A000801C0790DDE9020120F0000231F00043D7
:1007B00008BF002A02D10026002542E14BF02008A4
:1007C000B8F1610F40F093800E98002847BF2121B7
:1007D0000191401C0190019EDDE92C01761C002254
:1007E0000023DDE9024500F04DFD38BF85F00045EE
:1007F00000988DF88420001F002E00900DF18507D1
:1008000032DD204629460022002300F055FD2BD280
:100810001C2200F06BFD04460D4600F005FEF61F9D
:10082000002E804609DD00F01BFE02460B462046E6
:10083000294600F0E5FE04460D46F81D0721B8F1F3
:10084000000F0CDD491E5EBF08F00F0200F8012DFD
:100850004FEA2818F3D502E0002200F8012D491EC6
:10086000FAD5C71D002ECCDC0DF185003F1A01988A
:100870000DF185043E468742C8BF0646002E2FD4A0
:10088000BE4206DA0DF18500815D0829A8BF0F2060
:1008900000DA0020324621A98D1800E0761E15F8F6
:1008A0000139521E8342F9D00F2804D10DF1850180
:1008B000885C401C8854002A04D50098001D21AC97
:1008C000761C0090701E0BD421180B783033DAB2EE
:1008D0003A2AA4BF5B443A3B401E01F80139F4D5E3
:1008E0000E99002940F1AC80701E0E90A8E000998E
:1008F000DFF8FC2647F29750414391FBF2F2009259
:10090000DDE92C45C2F10702002A25F0004504DD8F
:100910002046294600F049FB0BE052420020DFF858
:10092000D41600F042FB02460B462046294600F052
:10093000D9FE04460D46B8F1660F06BF009E0A3682
:1009400006260E983618142EC8BF142630208DF8AF
:1009500084000DF18507002E34DD2046294600F085
:10096000E5FF01460A4607F1080C04200A27B2FBFE
:10097000F7FE0EEB8E03A2EB430230320CF8012C93
:100980000A22BEFBF2F202EB8203AEEB43033033EA
:10099000401E0CF8023DE9D1083E002E0CF108077C
:1009A000D9DD084600F0D4FF02460B462046294612
:1009B00000F026FE0022DFF8403600F0D7FF0446A4
:1009C0000D46CAE70DF185003F1A0DF1850404E0DC
:1009D0000098401E7F1E0090641C20783028F7D0BD
:1009E000B8F1660F02D1009E761C04E0B8F1650FE5
:1009F0000CBF012600260E983618B742B8BF7E1EDF
:100A0000002E1DD4BE4204DAA05D3428C8BF3920B0
:100A100000DC30203246611E8D1800E0761E15F88D
:100A20000179521E8742F9D0392802D1A05C401CBE
:100A3000A054002A04D50098401C0C46761C009057
:100A4000009D01F069F8406A0778DDF8388030B21F
:100A5000002802DC01260FF21C644BF020006628FF
:100A600008BF6D1C16D0672845D128B210F1040FBD
:100A700047DB404545DA9DF840106D1C080703D45C
:100A800030B24045D8BF804628B2B8EB000848BF16
:100A90004FF000080FFA85FBBBF1000F00F3B380A5
:100AA0000898411C0891302205990A54B8F1000FAA
:100AB00003DC9DF84010080704D50898411C0891F4
:100AC00005990F5418EB0B0FB8BFC8F100052DB2F4
:100AD0006842454432B20B909542B8BF2E46059B02
:100AE000089836B2099632462146184400F03EFB7B
:100AF000AD1B0C95D1E0BBF1610F17D14FF0700B1E
:100B000019E030B2404504DA9DF840100A0758BF9A
:100B10008046B8F1010848BF4FF00008BBF1670FED
:100B200014BF4FF0450B4FF0650B04E0BBF1410FD4
:100B300008BF4FF0500B0898411C0891B8F1000F06
:100B4000059914F8012B0A5403DC9DF8401008079E
:100B50001AD50898411C0891B8F1000F05990F5457
:100B600012DD761E30B28045B8BF46460598089B18
:100B700032B22146184400F0F9FA089836B230181B
:100B80000890A8EB06000B9005980899014428B23C
:100B9000002881F800B003D42B204870891C04E0A1
:100BA0002D224A700546891C6D4200202CAA0AE0BD
:100BB0002B460A2593FBF5F505EB8504A3EB4403CF
:100BC00002F8013B401C2DB2002DF1DC012806DCAF
:100BD0004BF02002652A04BF302201F8012B0028C7
:100BE0002CAB08D1302001F8010B06E0401E1A5C46
:100BF000303201F8012B0028F8DC059A08981044DF
:100C0000091A099149E031B228B281421CDA059BE8
:100C1000089832B22146184400F0A8FA089936B272
:100C200071180891ABEB0600B8F1000F0B9003DCD4
:100C30009DF84000020704D5059847540999491CBE
:100C40000991CDF8308028E0059B08982AB221460A
:100C5000184400F08BFA0898761B5844B8F1000F3E
:100C6000089003DC9DF840100A0703D5411C089149
:100C700005990F5430B28045B8BF46460598089B89
:100C800032B204EB0B01184400F070FA089836B247
:100C900030180890A8EB06000B909DF8400000F07B
:100CA0001400102840F0C280079A08980B99821807
:100CB00009988A1882180C980F998018884280F237
:100CC000B580081A0A90B1E09DF84200622808D069
:100CD00068280ED06A2814D06C281FD0712810D034
:100CE0001CE0D9F8001051F8040BC9F80010C0B28C
:100CF0001AE0D9F8001051F8040BC9F8001080B2BE
:100D000012E0D9F80000C21D22F00702C9F8002045
:100D1000D2E900010832C9F8002006E0D9F8001035
:100D200051F8040BC9F800100021CDE902019DF82B
:100D3000400002075AD5DDE90201002908BF00285A
:100D400054D04BF02002782A50D1079912A83023B2
:100D50004354491C4A1C079200F801B046E09DF834
:100D60004200622808D068280ED06A2814D06C2867
:100D70001FD0712810D01CE0D9F8001051F8040BD6
:100D8000C9F8001040B21AE0D9F8001051F8040B6D
:100D9000C9F8001000B212E0D9F80000C21D22F01C
:100DA0000702C9F80020D2E900010832C9F8002082
:100DB00006E0D9F8001051F8040BC9F80010C1176B
:100DC000CDE90201002902D507982D220AE0BDF8DD
:100DD0004000810702D507982B2203E0C00705D504
:100DE0000798202212A90A54401C079012A80799BC
:100DF00001440591594602A800F04EF816E0012082
:100E00000790D9F8001051F8040BC9F800108DF8BC
:100E100048000BE001222521BBF1000F07928DF85D
:100E2000481003D0022007908DF849B00F9D079815
:100E30000A992D1A08986D1A0B992D1A09986D1A8E
:100E40000C992D1A9DF840006D1A41073FF5D2AA62
:100E50002020002D8DF800007FF7CCAA309E2C4674
:100E6000FFF7BCBA4FF0FF3031B0BDE8F08F0000A3
:100E7000CBCCCC0C686A6C747A4C00007072696ED2
:100E800074665F733A206261642025732061726723
:100E9000756D656E740000002DE9FE4C06468B46AC
:100EA000376958466F2808BF082205D0FFF77EF93A
:100EB000782814BF0A221022D6E900013C250446F6
:100EC0008A46BBF1640F18BFBBF1690F04D100293A
:100ED00002D564426AEB4A0ABAF1000F08BF002C3F
:100EE0000CD1306B50B9082A3BD196F8381008075E
:100EF00037D530213B2587F83B1032E08DF800B024
:100F00009346204651465A46002300F009FE3032EF
:100F1000D0B26D1E3A2801950DDA7A552046514619
:100F20005A46002300F0FCFD04465FEA010A08BFB0
:100F3000002C05D108E09DF800001218513AECE7AA
:100F4000F16878198142DCD3BBF1080F09D196F81A
:100F50003800010705D5785D302802D06D1E30209D
:100F60007855C5F13C02306BB26179198242F1606B
:100F700007DA318F821A4FF6EF7001403262318703
:100F800010E000280ED596F8380000F01400102864
:100F900008D1736B7069316A1B1A5B1A9B1A002B9C
:100FA000C8BF336203B0BDE8F08C2DE9D0430646DC
:100FB0000F4614464FF00008DFF8409012E0E007BB
:100FC00007D542464B463046394600F0CFFC064630
:100FD0000F464046494642464B4600F0C7FC641067
:100FE00080468946002CEAD130463946BDE8D08398
:100FF000A08601000000F03F84D797410000244004
:10100000F8B505460E4617461C4600205CB117F899
:10101000011BB068A847B06030B1F06A401CF062B4
:101020000020641EF3D1F2BD4FF0FF30F2BD00008E
:101030007072696E74665F733A20256E20646973FE
:10104000616C6C6F776564007072696E74663A20CB
:1010500062616420256E20617267756D656E740033
:10106000000000006E616E004E414E00696E660029
:10107000494E460030000EE00268436802440830E2
:101080005FEAC37C44BF4B445B1E52F804CB43F879
:1010900004CB091FF9D150F8041B0029ECD170478B
:1010A000C9B202788A421AB11CBF10F8012FF9E7C1
:1010B00018BF0020704703685A1C026019707047FF
:1010C00080B500B906A005490B681BB1222200219A
:1010D000984701E000F0A7FD222002BD4002002059
:1010E000636F6E73747261696E742068616E646C94
:1010F00065723A20626164206D6573736167650093
:1011000000F1010310F8011B11B110F8011BFBE7FE
:10111000C01A7047C9B2830706D0521E22D310F8F6
:10112000013B9942F7D11FE0083A13D302F10402C0
:1011300041EA012141EA014150F8043B121F21BF5D
:101140004B40A3F1013C2CEA030C1CF0803FF3D090
:10115000C9B2001F0832521E24BF10F8013B91EAA9
:10116000030FF8D818BF0120401E704762B38B07E9
:1011700008D0521E11F8013B00F8013B00F024801A
:101180008B07F6D1830740F0208000BF103A07D3C9
:1011900030B4B1E83810103AA0E83810F9D230BCB9
:1011A000530724BFB1E80810A0E8081044BF51F865
:1011B000043B40F8043BD20724BF31F8022B20F84F
:1011C000022B44BF0B7803707047121F17D35B00CC
:1011D00009D151F8043B20F8023B1B0C121F20F8E8
:1011E000023BF6D20BE051F8043B00F8013B1B0A2E
:1011F00020F8023B1B0C121F00F8013BF3D238BF52
:10120000121D521E24BF11F8013B00F8013BF8D813
:1012100070472E0010B5144600F002F8226010BD91
:10122000C1F30A5343B14A0012F5001F28D2A3F2BA
:10123000FE32A1EB0251704750EA410C20D001F080
:10124000004C31EA0C01B1FA81F204BFB0FA80F32C
:10125000D2180B3AB2F120032CBF00FA03F19140EF
:1012600041EA0C013EBFC2F1200C20FA0CF31943F5
:101270009040524240F2FD33D21A01EB03517047C5
:101280000022704741EA030C50EA4C0C52EA0C0C65
:101290004FF4001C09D307D01CEB410F9CBF1CEB83
:1012A000430F8B4208BF824270471CEB430FFBD8B1
:1012B000994208BF9042704741EA030C50EA4C0C37
:1012C00052EA0C0C4FF4001C09D307D01CEB410F61
:1012D0009CBF1CEB430F994208BF904270471CEB28
:1012E000410FFBD88B4208BF82427047124254D450
:1012F00040F2FF7C1CEA11530FD0634531D09B189C
:1013000063453CBF01EB0251704701F0004141EAE7
:101310000C510020AFF30080704750EA410320D009
:1013200001F0004C91EA0C011CD0B1FA81F30B3BA7
:101330009A420DD9D21A994051EA0C01C3F1200CFE
:1013400020FA0CFC61449840531C40F2FF7CD7E724
:10135000914041EA0C01C2F1200C20FA0CF3194330
:1013600090407047B0FA80F31533202BE0D3202A49
:10137000EED3203A203B9A4209D9D21A00FA03F15F
:1013800041EA0C010020531C40F2FF7CB8E700FA50
:1013900002F141EA0C0100207047524240F2FF7C0A
:1013A0001CEA11530DD06345DBD0B2EB030C3CBFFC
:1013B000A1EB025170470CF1010221EA035141F403
:1013C000801150EA410CCCD001F0004C352A27DCCA
:1013D00030B481EA0C01B2F1200309DAC2F1200332
:1013E000044601FA03F5D0402843D1409C400CE06C
:1013F000C3F12002450020FA03F418BF44F00104B1
:1014000021FA03F091400C43002174F1004550F1A2
:10141000000051EB0C01244230BC7FF47BAF7047DD
:101420006146002076E70000C1F30A5340F21E42F5
:10143000D31A0CDDCA0283F3070342EA505242F08A
:101440000042DA4002EBE17282EAE17070476FEA33
:10145000E17203F2E13008B182F000407047000011
:1014600010F0004160B148BF4042B0FA80F29040B5
:10147000D21CC2F5846241EA025202EBD02140053F
:101480007047000070B491EA030F4FF0004540F13F
:10149000BF806B40841A71EB030604D26E40001BC0
:1014A000B141121973414FF4001C1CEB410F34BFC2
:1014B0007CEB430683E00C0DA4EB1356362E00F3B1
:1014C0007C80012E45EAC32341DC43EA525312BF1C
:1014D000D20292025B08240545EAC12141EA50513B
:1014E000D2EBC020994125D407D1B0FA80F610FA8A
:1014F00006F162D00020203608E0B1FA81F6B14052
:10150000C6F1200220FA02F21143B0404FEAF4740F
:10151000B4EB465434F001064FEA74040AD8D6F509
:101520000016760D04F00044F04061FA06F25040D7
:10153000F1404840C00A40EA415021F0004128BF34
:101540005FEA500550F1000044EBD12135E0DB0AA1
:1015500045EAC121C90AB6F120050EDD42EA024280
:10156000120CC5F1200603FA06F6EB4042EA060526
:101570006D42984161F100010DE062FA06F5F2401A
:10158000554063FA06FC82EA0C02F3405A406D4271
:10159000904161EB030111F4801F05D1641E6205C7
:1015A00002D06D004041494121F48011430875F19A
:1015B000004350F1000041EB045170BC70471CEB3C
:1015C000410F15D223F0004352EA43060BD04FEAF5
:1015D0004C0CBCEB410F04D80C0D661E342EB7DD4D
:1015E000EBE7801A994150EA410608BF0021E4E781
:1015F00008BF1CEB430F28BF6FF00001DDE70000C0
:1016000070B491EA030F4FF000457FF543AF6B4094
:10161000841A71EB030603D2001BB1411219734106
:101620004FF4001C1CEB410F34BF7CEB430442E041
:101630000C0DA4EB1356352E4FDC45EAC323DB0A11
:1016400045EAC121C912B6F120050DDD63FA05F6A0
:10165000EB4086EA0305124218BF45F00105C018A9
:1016600051F100010CD213E062FA06F5F240554048
:10167000F3415A40B340F3405A408018594107D3D0
:1016800049085FEA30005FEA350528BF45F00105EB
:1016900001F58011420875F1004250F1000041EB64
:1016A00004514E0016F5001F70BC38BF7047002073
:1016B000090D090570471CEB410F10D252EA430691
:1016C0000BD0BCEB410F05D80C0DAB43661E342E7E
:1016D000B6DD02E0AB438018594170BC704770BC66
:1016E00070470000F0B540F2FF7581EA030C0CF082
:1016F000004C15EA11541DBF15EA1357AC42AF4216
:10170000E5E0BC41C1F31301C3F31303801A99410F
:1017100043F4801304D2641E0018494180185941D3
:10172000C90241EA5051B1FBF3F603FB1611A2FBCB
:101730000675D7EBC020A94102D2761E8018594108
:10174000C90241EA5051B1FBF3FE03FB1E11A2FB9B
:101750000E75D7EBC020A94103D2AEF1010E80185F
:101760005941890241EA9051760546EA8E2EB1FB35
:10177000F3F603FB1611A2FB0675D7EB8020A941F7
:1017800002D2761E80185941C90241EA50514EEAF0
:10179000060EB1FBF3F603FB1611A2FB0675D7EBA1
:1017A000C020A94102D2761E80185941C90241EADF
:1017B0005051B1FBF3F703FB1711A2FB0735D3EB35
:1017C000C020A94167F100070CBF004247F00107A4
:1017D00066F3D5274FEA1E31B80814F5806412DD90
:1017E000BD0775F1004250EB0E5051EB045111F55D
:1017F000801F5CBF41EA0C01F0BD4CF07F6141F0FD
:10180000E0410020F0BDBD076D0840EA0E5041F4F4
:101810008011D4F10104B4F120060ADAC4F12006E3
:101820000200E04001FA06F3E1401843B2401543DC
:101830000EE0342C13DCC6F1200445EA40056D08A7
:1018400020FA06F2154321FA06F0A1400D430021CB
:1018500075F1004250F1000051EB0C01F0BD002089
:101860005FEA0C01F0BDCFB992185B41B3FA83F780
:1018700004BFB2FA82F6BF190B3FB7F120062FBFA3
:1018800002FA06F3BB40C7F1200622FA06F638BF7B
:101890003343BA401CB1E419641E33E77F4231F090
:1018A0000041B1FA81F404BFB0FA80F6A4190B3CF0
:1018B000B4F120062FBF00FA06F1A140C4F12006C2
:1018C00020FA06F638BF3143A0403C1B1AE7AC4271
:1018D0001ABF05EA1357AF4212E050EA41061CBF97
:1018E00052EA4306BFE750EA4107304661461CBF53
:1018F00041EA0551F0BD52EA430C08BFC143F0BDB7
:1019000000204FF4001616EB410F98BF16EB430F63
:1019100008BF16EB410F24BFC14305E016EB430F90
:101920000CBF61464CEA0551F0BD0000400D40F28D
:101930001E4C40EAC120BCEB115C40F0004003D4D7
:101940008CF30701C84070476FEAE17070470000F0
:1019500050B1B0FA80F18840C91CC1F58461090515
:1019600001EBD021400570470146704730B540F289
:10197000FF7C1CEA11541DBF1CEA135564456545E4
:101980003FE0641981EA030C6FF35F530CF0004CE5
:1019900043F48013C90241F0004141EA505EC502A0
:1019A0001100A5FB020200284FF00000EEFB012011
:1019B0004FF00001E3FB052118BF42F0010240187F
:1019C00000214941E3FB0E01A4F580640D0302D21E
:1019D00092184041494154F1010470DD450872F10B
:1019E000004250F1000051EB0451A1F5801102D4E6
:1019F00041EA0C0130BD40F2FF7E4CEA0E5100205E
:101A000030BD0CEA1355644518BF654581EA030CE7
:101A10000CF0004C41D050EA410E1CBF52EA430E7C
:101A200002E06146002030BD24422C441BD15FEA15
:101A3000050EF6D0090302BF01460020AEF1140ED8
:101A4000B1FA81F5AEEB050401FA05FE0C35C5F1DE
:101A5000200100FA05F5C8404EEA000E6FF35F530F
:101A600043F480139CE733F00043B3FA83F504BFDB
:101A7000B2FA82FE75440B3D641BB5F1200E2FBFF8
:101A800002FA0EF3AB40C5F1200E22FA0EFE38BF6B
:101A900043EA0E03AA40641C7CE750EA410E14BFDF
:101AA00052EA430E6FF000014FF4001515EB430F9F
:101AB0008EBF194615EB410F9DE7B4D830BDD4F168
:101AC0000104B4F120050FDAC4F12005520828BF43
:101AD00042F0010210FA05FE01FA05F57244E2BF78
:101AE000E0402843E1400FE0352C9ADCC5F12004AA
:101AF00052EA400220FA05F218BF42F0010231FA20
:101B000005F0A1400A43002172F1004250F10000AB
:101B100051EB0C0130BD0000004870471000002060
:101B2000D3BBD9B1B2F5803F5BD2022A1ED98C4615
:101B3000B1FBF2F102FB11C31B0443EA1043B3FBF8
:101B4000F2FC02FB1C3380B240EA0343B3FBF2F029
:101B500002FB103240EA0C4000237047022A05D9EC
:101B60008446B0FBF2F002FB10C270474AB105D1C7
:101B700000F0010249085FEA3000704700220023AC
:101B8000704700F053B80B0002000021002070479E
:101B9000F7D3002200237047904271EB030CF2D37D
:101BA00070B5B1FA81F4B3FA83F52C1BA340C4F1EC
:101BB000200532FA05F63343A2405FF00046E640C6
:101BC00002E05B085FEA3202841A71EB030524BF6E
:101BD000204629467641F4D302000B003000002154
:101BE00070BD70B5B1FA81F4B2FA82F5C4F1200487
:101BF0006419B4F12006DAD3B2405FF00044F44037
:101C0000002502E052085FEA3303C61A71EB020EA8
:101C100024BF3046714664416D41F3D302000B008E
:101C20002000290070BD012000F002B870470000BC
:101C300080B5AFF30080024A11001820ABBEFBE76D
:101C40002600020038B5040001D1012032BD04F1A4
:101C50004005687808B900F009F800F00CF800F0C9
:101C600022F8FFE7486100F010F832BD002129702A
:101C7000204600F032BB242068702168C86820F438
:101C80000050C860204600F0ABBA2168C86840F434
:101C90000050C8606A60202169702020A87000216F
:101CA0006163002070472168086920F49040086152
:101CB00000222168486920F02A0070472DE9FC4184
:101CC00006460D4696F84100202814461F4641D18D
:101CD0000DB1200001D101203DE0002171642120DF
:101CE00086F8410000F04EFBB4848046F484B0686E
:101CF000B0F5805F04BF306900281ABF2C4600256C
:101D0000002412E000228021304600F09AF9E0B968
:101D10003068002C12BF14F8011B35F8021BC1F308
:101D200008014160F18C481EF0844346F08C009716
:101D30000028E7D100224021304600F082F920B986
:101D4000202086F84100002005E0202086F8410090
:101D5000032000E00220BDE8F681F8B504462268C1
:101D6000136811460846CD68466913F00F0F03F05B
:101D7000200105F0200007D1002918BF00285BD002
:101D80002046BDE8F240CFE1F70702D415F4907F7A
:101D900052D0DA0705D5ED0503D5626C42F0010299
:101DA00062645D0705D5F20703D5656C45F0020551
:101DB00065649A0705D5F50703D5626C42F0040205
:101DC00062641A0706D508B9F20703D5636C43F0BD
:101DD00008036364626C002A2DD000291EBF00280E
:101DE000204600F0A1F920684069626C110701D417
:101DF00040061BD5204600F061F92168486941067C
:101E00000FD500F001F960B10FF20D310165E06B03
:101E100000F0AFFB00280ED0E06B016DBDE8F44090
:101E200008472046BDE8F24000F0B4BC204600F070
:101E3000B1FC00206064F1BD206B012804F1410178
:101E400040F08B80D80600D5EE0640F18680002356
:101E500000931268009223685A680092009B2268DF
:101E6000506942063DD5E26B1068406880B2002898
:101E7000E1D0A38D9842DEDAE085D069B0F5807FAD
:101E800027D0226802F10C0555E8002F206800F1E8
:101E90000C0322F4807200F09FF8F2D100F0A0F859
:101EA000520800F11403520000F096F8F6D100F049
:101EB00097F800F1140322F0400200F08DF8F6D1FB
:101EC000202048700021216300F091F8E06B00F0C1
:101ED00012FB02206063A18DE08D091A89B22046B1
:101EE00037E0A38DE28DE08D9B1A00281CBF98B2CD
:101EF000002870D02246156805F10C0454E8004F04
:101F00000C3524F4907445E800400028F3D114689F
:101F100004F1140656E8004F1068640800F1140537
:101F2000640045E800400028F1D1202048700021DD
:101F30001163146804F10C0151E8001F0C3421F006
:101F4000100144E800100028F3D10220506399B238
:101F50001046BDE8F44000F01EBC1A062BD528063A
:101F600029D50978212936D1A068B0F5805F04BF52
:101F70002069002809D1226A21681088C0F308006E
:101F80004860206A811C216205E0216A481C2062A9
:101F9000226809785160E08C401EE08480B2D0B99C
:101FA0002068C16821F08001C1602168C86840F0E4
:101FB0004000C860F1BD58060DD56A060BD52068F3
:101FC000C26822F04002C260204620220A70BDE8AA
:101FD000F24000F0E1BBF1BD43E80020002870476B
:101FE000226802F1140555E8002F20687047226826
:101FF00002F10C0151E8001F0C3221F0100142E8FF
:1020000000100028F3D17047226802F1140353E84E
:10201000001F143221F0400142E800100028F3D1E3
:10202000E06B704722F0100243E80021002970475E
:10203000026802F10C0454E8002F016801F10C035E
:1020400070472DE9FC41089C05460E4690461F4608
:10205000296808683040B0420CBF01210021414589
:102060002AD114F1010FF3D000F08CF9C01B844287
:1020700000D314B90320BDE8F6812968CA68500767
:10208000E6D5802E18BF402EE2D00B461A68100706
:10209000DED5002300932C682268009249680091E5
:1020A0000098284600F00AF805F140000822426036
:1020B000002101700120DEE70020DCE7036803F166
:1020C0000C0252E8002F0C3322F4907243E80021F6
:1020D0000029F3D1036803F1140252E8002F5208DB
:1020E0001433520043E800210029F3D1016B012988
:1020F0000BD1036803F10C0252E8002F0C3322F0DD
:10210000100243E800210029F3D1202280F8422068
:102110000021016370470000806B0022C28500210E
:10212000C18400F037BB00001CB590F84210222992
:1021300054D18168826AB1F5805F09D1016961B9C2
:1021400003685968C1F308011180826A911C0EE08E
:10215000002904BF0169002902D10368596803E01E
:102160000168496801F07F011170826A511C816227
:10217000C18D491EC18589B271BB0268D16821F049
:102180002001D16000230268D16821F48071D16000
:1021900002685169490849005161202280F84220B3
:1021A0004363016B012915D10363FFF741FFFFF77B
:1021B00039FFFAD101680A68D30607D500220092D8
:1021C0000B680093046862680092009B818D00F0A8
:1021D000E2FA01E000F0E1FA002016BD022016BD8F
:1021E00070B5064632681169F06821F44051014328
:1021F0001161D3682748B168034030690B437169A6
:102200000343F0690B430343D3605169B06921F480
:1022100040710143516120498A421CBF1F488242DC
:1022200002D100F049FB01E000F03EFB7268356826
:10223000F6691921B6F5004FA1FB00016FF06304A8
:1022400012D1D30F5200FFF76BFC00F029F8E40025
:1022500032346420B4FBF0F0420002F4F87202EB76
:10226000011200F0070010E0930F9200FFF758FCF6
:1022700000F016F8240132346420B4FBF0F000F0D2
:10228000F00202EB011200F00F008018A86070BD90
:1022900000000000F369FFFF00100140001401403E
:1022A0006421B0FBF1F104FB010470474FF4E1310C
:1022B00080B53048304B416000220C2103608260C1
:1022C000C260026141618261C261FFF7BBFC18B16B
:1022D000BDE8014000F094BB01BD10B586B00446D6
:1022E0001421002201A800F095FB236822498B42AB
:1022F0003DD100200090214C2148416941F010015E
:102300004161416901F0100100910021009B0091A1
:102310000221026842F0010202604FF4007200687C
:1023200000F0010000902046009B019202910122E2
:102330000392032104910722059201A900F074FB86
:1023400002210291002203924FF480600321019048
:1023500004910722059201A9204600F065FB0022A6
:102360000021252000F08BFC252000F0A7FC06B002
:1023700010BD0000F00100200010014000000240EC
:102380003038024001484068704700BF000000201C
:1023900070B50446FFF7F6FF06460CB9012070BD84
:1023A00004F13405022068700021297000F065F8FE
:1023B00022681068C1070AD5FFF7E4FF801B0628D2
:1023C000F6D32020286203216970032070BD1368B2
:1023D000DFF8580361680340A0680B43E1680343DA
:1023E00020690B4361690343A0690B43E16903431F
:1023F0000B43216A606A1943042803D1E06A084349
:10240000216B0143116022685369606ADB0804286C
:1024100040EAC3030AD1A66AE06A334330B1A16936
:1024200091B9002E18BF022E20D017D35361204639
:1024300000F098F9A96A3F228A40826001200022B8
:102440002A626870002070BDB1F5005F0AD1032ECA
:10245000ECD8DFE806F00D0B0D03E7E7B0F1C07F25
:10246000E4D105E0022E03D9F61EDFD1C001DDD58F
:10247000402129620120687070BD21680868400809
:10248000400008607047F8B5044604F134070025A1
:1024900038787E6A012801D10220F2BD012038700F
:1024A000787801281DD14FF0020C87F801C0002078
:1024B0003862204600F046F9B86A3F2101FA00FC74
:1024C000C6F808C02068016841F016010160F8688C
:1024D00020B12168086840F00800086000F005F8A5
:1024E00001E03D7002252846F2BD2168086840F0F1
:1024F000010008607047F8B5044604F134056E6ABF
:10250000FFF740FF07466878022805D0802129623E
:10251000002028700120F2BD2168086820F0160014
:102520000860216800F006F904BF6869002804D03B
:102530002168086820F008000860FFF79EFF226805
:102540001168C8070CD5FFF71DFFC01B0628F6D37E
:102550002020286203216970002028700320F2BD2A
:10256000A86A3F218140B160002001216970287074
:10257000F2BD90F83520022A03D080214165012068
:102580007047052180F83510016808684008400050
:102590000860002070472DE9FC41064606F134052D
:1025A0000020634A00904FF416506F6A11683C682F
:1025B000B1FBF0F8A86A082101FA00F004420ED03D
:1025C0003068026853070AD5026822F004020260EC
:1025D000A86A8140B960296A41F001012962A86AAC
:1025E00024FA00F2D1070BD5326851690A0607D5E3
:1025F000012101FA00F0B860286A40F00200286268
:102600000421A86A81400C4208D033681A689007F8
:1026100004D5B960286A40F0040028621021A86A35
:1026200081400C421BD033681A68100717D5B96077
:1026300030680268510307D5006801030BD569694A
:1026400069B1304688470AE00168CA0503D40168C9
:1026500021F008010160E96809B130468847A86A9D
:10266000202181400C4241D032681068C3063DD51C
:10267000B9603068697805291ED1026822F0160217
:102680000260316800F056F804BF6869002804D081
:102690003068016821F0080101603F22A86A824089
:1026A000BA60012169700020E969287000293AD0D8
:1026B0003046BDE8FC41084701684A0307D5006879
:1026C00001030FD4296989B1304688470EE00168BB
:1026D000CA0507D4016821F01001016001226A7067
:1026E00000202870A96809B130468847286AD0B10F
:1026F000296AC80711D5052169703168FFF7BEFE48
:102700000098401C8045009003D332681168C807C8
:10271000F6D40121697000202870A96919B13046EA
:10272000BDE8FC410847BDE8F38100003F8010F0A0
:102730000C000020486920F080004861E86800280B
:102740007047000030B50468256825F480252560B1
:1027500063608068402802D1A260E16030BDA16062
:10276000E26030BD10B501461822086807A400F0E9
:10277000FF03103BB3FBF2F2800AA35CCB6580023F
:10278000042A28BF001D886510BD00000006101631
:102790000006101670477047704770472DE9F041EA
:1027A00004000F4654D0494E306800F00F00B84284
:1027B00002D200F073F84BD12168454D880712D53D
:1027C000490703D5A86840F4E050A86020780107C5
:1027D00003D5A86840F46040A860A968A06821F00B
:1027E000F0010143A9602178C80729D56068012854
:1027F00002D129688A0305E0022818BF032803D103
:1028000029688A0103D423E029688A0720D5A968AA
:10281000890840EA8100A860FFF7B4FD8046A868F7
:10282000616800F00C00B0EB810F09D0FFF7AAFD42
:10283000A0EB080041F289318842F0D303202BE05D
:10284000306800F00F00874204D200F027F801D072
:10285000012021E02078420705D5A968E06821F42D
:10286000E0510143A96021780A0706D5A8682169CB
:1028700020F4604040EAC100A86000F047FAAA686E
:102880001449154BC2F30312895CC8401860134801
:10289000006800F06BFA0020BDE8F0813770316805
:1028A00001F00F01B94270470B480D4B00681A68E0
:1028B0000C49C2F3822206E00748094B00681A68F7
:1028C0000849C2F34232895CC8407047003C02406C
:1028D00000380240603D00080C0000200800002085
:1028E00008380240D03D00087FB500F05FFA00F0E4
:1028F00077FA00F0A3FA00F025F800F0F1FA00F002
:102900005BFBFFF7D3FC00F071FB394E3DA4394D62
:1029100000F0F4FB85ED000B53EC102B21466846CC
:1029200000F02EFC6846FEF7EBFB82B24FF6FF7319
:1029300069463046FFF7C2F900F077FAFA2000F056
:102940003FFCE5E780B592B0302106A800F04CFCD2
:10295000142101A800F048FC002000904FF48032C0
:102960002548016841F080510160006800F0805006
:1029700000900020009900902048016841F44041F7
:102980000160006800F44040009001200099079227
:1029900002210C9106904FF4800219210D920E91A4
:1029A0004FF4B4700F90022204211092119106A8E6
:1029B00000F01EFC08B100F023F800F0A3FD08B100
:1029C00000F01EF80F2201920221029100220392D0
:1029D0004FF4A05104914FF480520592052101A8B3
:1029E000FFF7DCFE08B100F00BF813B000BD0000EB
:1029F000F001002038020020403802400070004002
:102A000072B6FEE774656D702069733A20252E3228
:102A1000660A00004018491C1CBFB1F1010100F812
:102A2000012DF9D1704700002DE9F84F0022DFF8A1
:102A3000EC41DFF8EC814FF00F0901230F68934060
:102A40001F409F4240F0D7804FEA420C032505FA11
:102A50000CF56FEA050E4D6805F00306012E1CBF4C
:102A600005F00305022D10D18668CD680EEA060632
:102A700005FA0CF52E438660456825EA03034D6888
:102A8000C5F3001595402B43436093000D7905F085
:102A90000305032D1ED0C6688D680EEA060605FAEA
:102AA0000CF52E43C6600E7906F00306022E11D1F6
:102AB000D50800EB850503F01C06D5F820B009FA0F
:102AC00006FA2BEA0A0BD1F810A00AFA06F646EA33
:102AD0000B062E6205680EEA05060D7905F0030562
:102AE00005FA0CF545EA060CC0F800C04D6815F46F
:102AF000403F00F080804FF0000ECDF800E04FEA3C
:102B0000920CD8F8005045F48045C8F8005003F006
:102B10000C03D8F800E0434D0EF4804ECDF800E0F1
:102B200009FA03F6DDF800E055F82C50B5433E4EA7
:102B3000B04208BF4FF0000E36D03C4EB04208BF46
:102B40004FF0010E30D03A4EB04208BF4FF0020EA7
:102B50002AD0384EB04208BF4FF0030E24D0364E74
:102B6000B04208BF4FF0040E1ED0344EB04208BF32
:102B70004FF0050E18D0324EB04208BF4FF0060E8F
:102B800012D0304EB04208BF4FF0070E0CD02E4E80
:102B9000B04208BF4FF0080E06D02C4EB0420CBF1A
:102BA0004FF0090E4FF00A0E0EFA03F3DFF874E04F
:102BB0002B434EF82C30FE43A3684D683340ED02A2
:102BC00048BF3B43A360E3684D683340AD0248BF54
:102BD0003B43E36063684D683340AD0348BF3B430C
:102BE0006360236806EA030C4B68DB0348BF47EACF
:102BF0000C0CC4F800C0521C0F2A7FF61EAFBDE8B3
:102C0000F18F02B9090481617047436901EA030247
:102C1000994341EA0241816170470000003C014054
:102C200044380240083801400000024000040240DD
:102C300000080240000C0240001002400014024054
:102C400000180240001C0240002002400024024004
:102C50000A01010002D4274B5A547047264801F05C
:102C60000F01014401F8042C704724490A6860F3FD
:102C70000A2240F2FA5060F31F420A60704770B5B2
:102C80001E4C2368C3F302230124C3F10705052D5D
:102C90002FBF0F26C3F1070604FA06F6761E1D1D88
:102CA000072D34BF0023DB1E3140994004FA03F3A3
:102CB000BDE870405B1E1A401143C9E7010007D40C
:102CC000012200F01F010E4B8A40400943F82020EA
:102CD0007047401EB0F1807F01D301207047094941
:102CE0004860F0220848027000238B6007220A60C7
:102CF0000020704700E400E018ED00E00CED00E07B
:102D000000E100E010E000E023ED00E030B5144CFD
:102D1000606800F00C00042802D0082802D01DE0F2
:102D2000104830BD226821680023480202F03F02AB
:102D300004D525680B48C5F3881103E021680A48CB
:102D4000C1F38811A0FB0101FEF7EAFE2168C1F37F
:102D50000141491C4900B0FBF1F030BD024830BDD3
:102D60000438024040787D010024F40038B50D4D50
:102D70000D4A297804464FF47A731068B3FBF1F1D9
:102D8000B0FBF1F0FFF7A5FF50B9102C08D20022DC
:102D900021464FF0FF30FFF772FFAC60002032BDDC
:102DA000012032BD000000200C00002080B50B483F
:102DB000016841F400710160026842F480620260BF
:102DC000016841F4807101600320FFF74EFF0F207E
:102DD000FFF7CCFF00F0D0FB002002BD003C02401A
:102DE00010B586B01421002201A8FFF713FE0021C0
:102DF0001048114C00910321026842F00202026067
:102E00000122006800F00200009000982046FFF7C1
:102E1000F8FE0320012101900291039104912046C4
:102E200001A9FFF701FE06B010BD01210248FFF71E
:102E3000ECBE0000303802400004024080B586B08D
:102E40001421002201A8FFF7E5FD00212048009190
:102E5000026842F004020260016801F0040100917E
:102E60000021009B0091026842F08002026001682C
:102E700001F0800100910021009A00910022036876
:102E800043F001030360006800F001000090082097
:102E90000099019001210391029201A90D48FFF7C9
:102EA000C3FD01200021019002910222039201A999
:102EB0000948FFF7B9FD0C20012101900022039180
:102EC000029201A90548FFF7AFFD07B000BD000061
:102ED000303802400008024000000240001C02405E
:102EE00010B586B0142100226846FFF793FD00213B
:102EF0002548264C0591026842F0040202600168F0
:102F000001F0040100F04AF842F08002026001681A
:102F100001F0800100F042F842F001020260016815
:102F200001F0010105910021059A05910122036834
:102F300043F0020303600321006800F002000590E3
:102F400005982046FFF75DFE082000F02DF8104898
:102F5000FFF76AFD0120022100F027F80D48FFF776
:102F600063FD0C2000F020F80B48FFF75DFD032007
:102F70000121009001910291039120466946FFF7DB
:102F800053FD06B010BD000030380240000402407E
:102F90000008024000000240001C02400591002190
:102FA000059B059102687047012100900022029163
:102FB000019269467047000080B500200090002211
:102FC0000948016841F4800101600021006800F4B3
:102FD000800000903820009BFFF751FEBDE80240C2
:102FE0003820FFF76BBE00BF303802401FB51021FC
:102FF00000226846FFF70EFD4FF48030524C534AD2
:10300000606000215248A06222600120E06160619E
:10301000A1602161217684F82010E162E16084F8EA
:103020003010204600F0C4FA08B1FFF7E9FC494827
:10303000009000210122029101926946204600F091
:10304000B1FC08B1FFF7DCFC1FBD38B504463F49B1
:1030500022688A4235D1002000903F4D3F48404AC7
:10306000016841F480710160006800F48070009094
:10307000002000996860A860E8604FF480612961D1
:103080004FF4006068614FF400512A60A9614FF469
:103090008070E8614FF4803200212A62696228461C
:1030A000FFF776F908B1FFF7ABFCA563AC6300222C
:1030B00000211220FFF7E3FDBDE832401220FFF7A8
:1030C000FDBD31BDF8B504461F4E802206F1480112
:1030D000304600F0D0FB0025002707E0304600F026
:1030E0005EFC4519052000F06BF87F1CF9B2A14287
:1030F000F4D3ADB295FBF4F080B2F2BD80B50A20F6
:10310000FFF7E0FF00EE100AB8EE400A10EE100ADA
:1031100000F040FD4FF06632124BFEF727FC002214
:10312000114BFEF723FC114A114BFEF7ABF9114A84
:10313000114BFEF7D7FA0022104BFEF7A3F941EC32
:10314000100B01BD000000004800002000200140DD
:103150000100000F120000109001002044380240CE
:103160001064024066660A400000303F52B81E8577
:10317000EB51E8BF7B14AE47E17A643F0000394071
:103180000CB430B583B00A4606A902910446002566
:103190000194009502AB01A9084878441E30FDF760
:1031A00008F801990D7000284EBF04460198041BD1
:1031B000204603B030BC5DF80CFB00BFFBDEFFFF18
:1031C00038B50546FFF7DEF815F1010F044602D0C9
:1031D000044908782D18FFF7D5F8001BA842FAD348
:1031E00031BD00BF00000020002200F0F7BC00004D
:1031F0002DE9F843040016D02078DFF8F862C10703
:1032000013D5B06800F00C00042807D0B06800F0B7
:103210000C0008283DD1706841023AD5306881031E
:1032200003D56068002800F05F812078B24F8107E5
:1032300019D5B06810F00C0F07D0B06800F00C0082
:1032400008285CD17068410259D43068810703D5E1
:10325000E068012840F048813168206921F0F801D8
:1032600041EAC00131602178080773D56069A3493C
:10327000002862D001220A60FFF784F80546706FCB
:10328000810767D4FFF77EF8401B0228F7D9032097
:103290002DE16068B0F5803F03D1306840F48030A4
:1032A00012E0B0F5A02F08D1306840F480203060E3
:1032B000316841F48031316007E0326822F48032B5
:1032C0003260306820F480203060606858B1FFF7C9
:1032D00059F8054631688803A7D4FFF753F8401B17
:1032E0006528F7D3D3E7FFF74DF805463168880323
:1032F0009BD5FFF747F8401B6528F7D3C7E7E06881
:1033000068B101213960FFF73DF805463068810753
:10331000A2D4FFF737F8401B0228F7D9B7E70022FD
:103320003A60FFF72FF80546316888079BD5FFF70D
:1033300029F8401B0228F7D9A9E70860FFF722F80F
:103340000546716F880705D5FFF71CF8401B02285A
:10335000F7D99CE72078410760D5306C0025C10083
:103360000BD4002000900125316C41F08051316474
:10337000306C00F0805000900098DFF88481D8F81D
:103380000000C10513D4D8F8000040F48070C8F8DC
:103390000000FEF7F7FF8146D8F80010C80506D4F4
:1033A000FEF7F0FFA0EB09000228F5D96FE7A0684F
:1033B000012805D00528306F06D140F004003067A1
:1033C000306F40F0010005E0400840003067306F8A
:1033D00020F00400306741F28938A06860B1FEF740
:1033E000D1FF8146316F880713D4FEF7CBFFA0EBE6
:1033F00009004045F6D34AE7FEF7C4FF8146316F26
:10340000880706D5FEF7BEFFA0EB09004045F6D3BE
:103410003DE71DB1306C20F080503064A069002879
:1034200064D0B16801F00C0108293AD002282AD1F1
:1034300000203866FEF7A6FF05463068810105D5F5
:10344000FEF7A0FF401B0228F7D920E7E269206AB7
:10345000616A0243A06A400842EA8112401E42EAC1
:103460000042E06A42EA0062726001213966FEF7BA
:1034700089FF04463068810138D4FEF783FF001BC2
:103480000228F7D903E700203866FEF77BFF0446E1
:10349000306881012AD5FEF775FF001B0228F7D995
:1034A000F5E6012820D07068E16900F480028A42C4
:1034B00002BF00F03F02216A8A4201BF47F6C07294
:1034C0000240616AB2EB811F0ED1A16A00F4403262
:1034D00002F580324908B2EB014F02BF00F0706084
:1034E000E16AB0EB016F01D0012000E00020BDE8EF
:1034F000F28300BF0038024000004742800E47427E
:1035000000700040F8B500F020F80120009920601C
:10351000FEF738FF07463168C80306D4FEF732FFCE
:10352000C01BA842F7D30320F2BD01206060FEF764
:1035300029FF04463168880305D4FEF723FF001BEA
:10354000A842F7D3EFE70020F2BD0020009040F240
:10355000E9350748074C0168044E41F0805101608D
:10356000006800F080500090704700000470004038
:103570004038024040000E4281B0002000900B48CD
:10358000416841F480414160416801F4804100910B
:103590000021009B0091026842F0805202600068A6
:1035A00000F080500090009801B070474038024011
:1035B00070B5044600260CB9012070BD04F1300539
:1035C000286928B92046FFF740FD00216961297369
:1035D0002869C10600F196802869DFF80C1520F4EF
:1035E000885040F002002861086820F440300860EC
:1035F0000A68606802430A602068416821F48071AB
:10360000416020684168226941EA022141602168E5
:10361000486820F04070486022685168A068014303
:1036200051602168886820F4006088602268916891
:10363000E068014391602068A16ADFF8B0249142FC
:10364000816821F0706181600CD022689168A06A65
:103650000143916000F05BF822689168E06A0143E1
:10366000916001E000F053F82168886820F00200C2
:10367000886022689068217E40EA4100906021685D
:1036800094F82000002848680FD040F4006048609B
:103690002168486820F46040486022685068616A88
:1036A000491E40EA4130506002E020F4006048606A
:1036B0002168C86A20F47000C8622068C26AE169A3
:1036C000491E42EA0152C2622068816821F40071F9
:1036D000816022689068297840EA412090602068E3
:1036E000816821F48061816020688168626941EAB3
:1036F00082218160002068610120296960F3010155
:10370000296100E0012600202873304670BD216841
:10371000886820F0405088607047B3FBF0F000EB01
:10372000400001E00098401E009000980028F9D168
:103730007047016841F0804101607047096801F0FD
:103740001F0110297047816841F0804181607047F6
:1037500070B5044621680D680846A90746682ED54D
:10376000B0062CD5216CC80603D4216C41F400713D
:1037700021642168886810F0405F04BF207E002823
:1037800016D1C86A10F4700F02D0886841050FD4B2
:103790002068416821F020014160216C21F4807192
:1037A0002164206CC10403D4206C40F0010020642B
:1037B000204600F02CFA21686FF0120008606807BC
:1037C00034D5310632D5206CC10603D4206C40F4C8
:1037D000005020642168886810F4401F1FD1886B56
:1037E00010F4401F02D08868420518D4486842058A
:1037F00015D4886810F0405F04BF207E00280ED1E9
:10380000486820F080004860206C20F480502064DC
:10381000216CC80503D4216C41F0010121642046CC
:1038200000F0F6F920686FF00C010160E90710D58F
:1038300070060ED522681168C8070AD5216C41F4BC
:1038400080312164204600F0E4F920686FF0010126
:103850000160A9060ED570010CD5616C41F0020122
:1038600061646FF0200520680560204600F0D2F901
:1038700021680D6070BDF8B500230093044604F183
:103880003C031878012801D10220F2BD01201870F4
:1038900020688568EE070AD48568954E45F00105D5
:1038A000856094483568B5FBF0F0FFF738FF206875
:1038B0008568EE0503D5856825F4807585602568E3
:1038C000A868C70761D55E688E48064046F48076D2
:1038D0005E606D68680504D55D68012060F30D3594
:1038E0005D605868C50446BF986820F00600002057
:1038F000986000251D70A36B0FF21520D863A36B91
:103900000FF2752018646FF02203A56B0FF271207F
:10391000E864206803602068436843F08063436084
:103920002368986840F48070986013462568A06BFF
:103930000A4605F14C01FEF7A6FD20686A49724B64
:103940000A6812F01F0F16D198420DD06A4A9042B1
:1039500004D1096811F01F0F1FD105E0674A90429A
:103960001BD1FFF7EBFE18D2816811F0405F14D134
:10397000FFF7E9FE11E0984202BF6148016811F0CB
:10398000405F0AD1FFF7D5FE07E0586840F010000D
:103990005860986840F0010098600020F2BD00680F
:1039A000C06C704778B502460020009092F83C3019
:1039B000012B01D1022072BD012082F83C000723B7
:1039C0000D6810680A2D12D30A3DC46805EB450541
:1039D000AB4024EA0303C360C3680E688C68A6F199
:1039E0000A0505EB4505AC402343C3600FE00469BD
:1039F00005EB450503FA05F524EA050505610369AC
:103A00000D688C6805EB4505AC40234303611F241A
:103A10004B68072B0CD25B1E456B00F05EF84463CD
:103A2000436B4D680C886E1E00F052F843631BE038
:103A30000D2B0CD2DB1F056B00F04FF80463036BFA
:103A40004D680C88EE1F00F043F803630CE00D3B5B
:103A5000C56A00F042F8C462C36A4D680C88A5F1DB
:103A60000D0600F035F8C362274CA0422BD10B683D
:103A70001D48122B07D1046824F400040460036875
:103A800043F4800303600C68204B9C4218BF112C48
:103A900019D1056825F480050560046844F4000424
:103AA0000460086898420ED1114C12492368B3FB98
:103AB000F1F10A204143009102E00098401E00907D
:103AC00000980028F9D1002182F83C10002072BD36
:103AD00006EB8606B4402343704703EB83039C4008
:103AE00025EA040470470000042301400100000F90
:103AF0000C00002040420F00002101400022014044
:103B000008200140FEF9FFFF0020014012000010D4
:103B1000816B0A6C12F0500F24D1086C40F40070D5
:103B200008640A68906810F0405F04BF087E0028AF
:103B300015D1D06A10F4700F02D0906843050ED4EE
:103B4000506820F020005060086C20F480700864F9
:103B5000086CC20403D4086C40F0010008640846F5
:103B600000F055B80B6CDA0644BF084600F052B8B6
:103B70008A6BD16C08470000806B00F04CB80000E5
:103B8000806B40220264416C41F00401416400F00A
:103B900041B80000C0F3C75181B1FF2906D0C11060
:103BA000400721F0E04101F16051704741020CBF34
:103BB00040F4E0016FF000410020704700F0004148
:103BC00000020AD0B0FA80FC00FA0CF001F160515A
:103BD000A1EB0C5101EBD0214005704700B500BFAF
:103BE000130096469446103928BFA0E80C50FAD826
:103BF0005FEA417C28BF0CC048BF40F8042BC907CE
:103C000028BF20F8022B48BF00F8012B00BD7047E9
:103C100070477047704770470100000000000000C7
:103C2000100000000024F4002614000826140008E8
:103C3000261400082614000826140008261400087C
:103C400026140008FFFFFFFFFFFFFFFF121200080E
:103C50002614000826140008FFFFFFFFFFFF0000E6
:103C600030B4002412E050F8043BDA0744BF4B4460
:103C70005B1E091F042943F8044BFAD21A468D072C
:103C800044BF1C80921CCB0748BF147050F8041B23
:103C90000029E8D130BC7047FEE7FEE7FEE7FEE70B
:103CA000FEE770477047704700F010B80448FFF710
:103CB0004FBD0448FEF751B80348FEF76CBC000046
:103CC00048000020F00100209001002002484268D6
:103CD00001785118416070470000002010B5034A78
:103CE0007A440832024C7C44A41D03E040000000EA
:103CF0006000000004E01168101D1144884702466E
:103D0000A242F8D110BD00004EF68851CEF200015B
:103D1000086840F470000860BFF34F8FBFF36F8FE7
:103D20004FF00170E1EE100A7047000035FFFFFF11
:103D3000FC01000048000020000000003BD3FFFF12
:103D400048000000D4FEFFFF00000020000000003B
:103D50000249086840F470000860704788ED00E090
:103D6000000000000000000001020304060708092B
:103D700000F00DF8002801D0FFF7B0FFAFF300808E
:103D80000020AFF30080FEF7AFFD00F002F8012045
:103D9000704700F001B8000007463846FDF748FFBD
:103DA000FBE700000548014603B4684680F3098834
:103DB000AFF30080FFF7A8FFFFF7DAFFA5EDF5FEF0
:103DC0000148804701480047513D0008A53D0008D3
:103DD0000000000001020304FFF7FEBFFFF7FEBF73
:103DE000FFF7FEBFFFF7FEBFFFF7FEBFFFF7FEBF07
:103DF000FFF7FEBFFFF7FEBFFFF7FEBFFFF7FEBFF7
:103E0000FFF7FEBFFFF7FEBFFFF7FEBFFFF7FEBFE6
:103E1000FFF7FEBFFFF7FEBFFFF7FEBFFFF7FEBFD6
:103E2000FFF7FEBFFFF7FEBFFFF7FEBFFFF7FEBFC6
:103E3000FFF7FEBFFFF7FEBFFFF7FEBFFFF7FEBFB6
:103E4000FFF7FEBFFFF7FEBFFFF7FEBFFFF7FEBFA6
:103E5000FFF7FEBFFFF7FEBFFFF7FEBFFFF7FEBF96
:103E6000FFF7FEBFFFF7FEBFFFF7FEBFFFF7FEBF86
:103E7000FFF7FEBFFFF7FEBFFFF7FEBFFFF7FEBF76
:103E8000FFF7FEBFFFF7FEBFFFF7FEBFFFF7FEBF66
:103E9000FFF7FEBFFFF7FEBFFFF7FEBFFFF7FEBF56
:103EA000FFF7FEBFFFF7FEBFFFF7FEBFFFF7FEBF46
:103EB000FFF7FEBFFFF7FEBFFFF7FEBFFFF7FEBF36
:103EC000FFF7FEBFFFF7FEBFFFF7FEBFFFF7FEBF26
:103ED000FFF7FEBFFFF7FEBFFFF7FEBFFFF7FEBF16
:103EE000FFF7FEBFFFF7FEBFFFF7FEBFFFF7FEBF06
:103EF000FFF7FEBFFFF7FEBFFFF7FEBFFFF7FEBFF6
:103F0000FFF7FEBFFFF7FEBFFFF7FEBFFFF7FEBFE5
:103F1000FFF7FEBFFFF7FEBFFFF7FEBFFFF7FEBFD5
:103F2000FFF7FEBFFFF7FEBFFFF7FEBFFFF7FEBFC5
:043F3000FFF7FEBFDA
:0400000508003DA50D
:00000001FF
