:020000040800F2
:1000000030060020D1200008851E0008871E000849
:10001000891E00088B1E00088D1E000800000000CD
:100020000000000000000000000000008F1E00081B
:10003000911E000800000000931E0008951E000895
:10004000F9200008FD200008012100080521000812
:10005000092100080D2100081121000815210008C0
:10006000192100081D210008212100082521000870
:10007000292100082D210008312100083521000820
:10008000392100083D2100084121000845210008D0
:10009000492100084D210008512100085521000880
:1000A000592100085D210008612100086521000830
:1000B000692100086D2100087121000875210008E0
:1000C000792100087D210008812100088521000890
:1000D00089210008991E00088D210008912100083F
:1000E00095210008992100089D210008A121000800
:1000F000A5210008A9210008AD210008B1210008B0
:10010000B5210008B9210008BD210008C12100085F
:10011000C5210008C9210008CD210008D12100080F
:10012000D5210008D9210008591F0008DD21000849
:10013000E1210008E5210008E9210008ED2100087F
:10014000F1210008F5210008F9210008FD2100082F
:1001500001220008052200085F1F0008092200088C
:100160000D2200081122000815220008192200089B
:100170001D2200082122000825220008000000009E
:10018000292200082D22000831220008352200080B
:10019000392200083D2200084122000845220008BB
:1001A000492200084D2200085122000838B50400F9
:1001B00001D1012032BD04F14005687808B900F092
:1001C00009F800F00CF800F022F8FFE7486100F0B1
:1001D00010F832BD00212970204600F06FBC2420A9
:1001E00068702168C86820F40050C860204600F09C
:1001F000D5BB2168C86840F40050C8606A602021FF
:1002000069702020A8700021616300207047216878
:10021000086920F49040086100222168486920F0B4
:100220002A0070472DE9FC4106460D4696F841002C
:10023000202814461F4641D10DB1200001D10120D4
:100240003DE000217164212086F8410000F04CFD62
:10025000B4848046F484B068B0F5805F04BF306930
:1002600000281ABF2C460025002412E0002280211D
:10027000304600F070FAE0B93068002C12BF14F874
:10028000011B35F8021BC1F308014160F18C481EC7
:10029000F0844346F08C00970028E7D100224021EB
:1002A000304600F058FA20B9202086F8410000209E
:1002B00005E0202086F84100032000E00220BDE890
:1002C000F68110B500F130039C7C202C0AD109B1D5
:1002D000140001D1012010BD00241C60BDE81040B5
:1002E00000F076BA022010BD036803F10C0252E858
:1002F000002F0C33704738B5044604F141052068DF
:1003000041692878212809D1080607D500F028F886
:1003100008B100F0A2FD204600F09DFA2068406977
:10032000697822290FD140060DD500F00EF821F092
:10033000400100F011F8F8D1E06B08B100F08DFD3C
:10034000204600F098FA002032BD226802F1140124
:1003500051E8001F1432704742E80010002870472F
:10036000226802F1140151E8001F143221F08001CB
:1003700042E800100028F3D1A06B7047F8B504469E
:100380002268136811460846CD68466913F00F0FBE
:1003900003F0200105F0200007D1002918BF002834
:1003A0005BD02046BDE8F2409CE2F70702D415F48A
:1003B000907F52D0DA0705D5ED0503D5626C42F087
:1003C000010262645D0705D5F20703D5656C45F04F
:1003D000020565649A0705D5F50703D5626C42F0FE
:1003E000040262641A0706D508B9F20703D5636CE4
:1003F00043F008036364626C002A2DD000291EBFFD
:100400000028204600F06EFA20684069626C1107EF
:1004100001D440061BD5204600F02DFA216848691A
:1004200041060FD500F001F960B10FF2A941016555
:10043000E06B00F050FD00280ED0E06B016DBDE8D0
:10044000F44008472046BDE8F24000F055BE204683
:1004500000F052FE00206064F1BD206B012804F121
:10046000410140F08B80D80600D5EE0640F1868031
:10047000002300931268009223685A680092009B40
:100480002268506942063DD5E26B1068406880B230
:100490000028E1D0A38D9842DEDAE085D069B0F57E
:1004A000807F27D0226802F10C0555E8002F2068D4
:1004B00000F10C0322F4807200F09FF8F2D100F0FA
:1004C000A0F8520800F11403520000F096F8F6D19B
:1004D00000F097F800F1140322F0400200F08DF8CC
:1004E000F6D1202048700021216300F091F8E06BE4
:1004F00000F0B3FC02206063A18DE08D091A89B27F
:10050000204637E0A38DE28DE08D9B1A00281CBFAA
:1005100098B2002870D02246156805F10C0454E802
:10052000004F0C3524F4907445E800400028F3D1C6
:10053000146804F1140656E8004F1068640800F1CE
:100540001405640045E800400028F1D120204870DF
:1005500000211163146804F10C0151E8001F0C34F0
:1005600021F0100144E800100028F3D1022050636C
:1005700099B21046BDE8F44000F082BB1A062BD5B4
:10058000280629D50978212936D1A068B0F5805FE1
:1005900004BF2069002809D1226A21681088C0F3AD
:1005A00008004860206A811C216205E0216A481C1D
:1005B0002062226809785160E08C401EE08480B29D
:1005C000D0B92068C16821F08001C1602168C86885
:1005D00040F04000C860F1BD58060DD56A060BD545
:1005E0002068C26822F04002C260204620220A70C1
:1005F000BDE8F24000F081BDF1BD43E800200028D5
:100600007047226802F1140555E8002F20687047F2
:10061000226802F10C0151E8001F0C3221F0100198
:1006200042E800100028F3D17047226802F1140359
:1006300053E8001F143221F0400142E80010002866
:10064000F3D1E06B704710B501460B68886B1968F1
:10065000CA051ED40021C18500F02FF800F036F83D
:10066000FAD1036803F1140252E8002F5208143340
:10067000520000F01EF8F4D100F02EF8202180F88E
:100680004210026B012A04D1FFF72EFE00F00FF892
:10069000FAD100214163026B012A04D1818DBDE8AA
:1006A000104000F0EDBABDE8104000F0B3BA22F0FF
:1006B000100243E8002100297047026802F10C048F
:1006C00054E8002F016801F10C03704722F4807296
:1006D00043E8002100297047036803F1140252E83F
:1006E000002F143322F0400243E800210029F3D107
:1006F0007047806B01224263016B012918BF00F033
:1007000067BA818D490800F0BBBA000038B5846B28
:100710002068416904F141052878212806D10A069C
:1007200004D50021E184204600F095F8216848694D
:100730006978222906D1410604D50020E0852046AB
:1007400000F099F8606C40F0100060642046BDE84D
:10075000324000F0D1BC2DE9FC41089C05460E4614
:1007600090461F46296808683040B0420CBF0121FE
:10077000002141452AD114F1010FF3D000F0B4FA61
:10078000C01B844200D314B90320BDE8F681296858
:10079000CA685007E6D5802E18BF402EE2D00B461F
:1007A0001A681007DED5002300932C682268009297
:1007B000496800910098284600F05DF805F1400076
:1007C00008224260002101700120DEE70020DCE702
:1007D00038B504461346A162A38500226264222034
:1007E00084F842000025E06B994AC263E06B994AA5
:1007F0000264E06B984AC2640A46E06B05652568AE
:10080000E06B291D00F0F1FA0021009125682A68AB
:100810000092236859680091009A206960B12168AC
:1008200001F10C0353E8001F206800F10C0241F4B1
:100830008071FFF791FDF2D1FFF787FD41F00101D3
:10084000FFF78AFDF8D1FFF780FD41F04001FFF787
:1008500083FDF8D132BD036803F10C0252E8002F8A
:100860000C3322F0C00243E800210029F3D12021FB
:1008700080F841107047036803F10C0252E8002F22
:100880000C3322F4907243E800210029F3D103686D
:1008900003F1140252E8002F52081433520043E8C7
:1008A00000210029F3D1016B01290BD1036803F169
:1008B0000C0252E8002F0C3322F0100243E8002112
:1008C0000029F3D1202280F84220002101637047E3
:1008D00000000000806B0022C2850021C18400F06E
:1008E0000BBC00001CB590F84210222954D181683D
:1008F000826AB1F5805F09D1016961B903685968FD
:10090000C1F308011180826A911C0EE0002904BF26
:100910000169002902D10368596803E00168496848
:1009200001F07F011170826A511C8162C18D491EE4
:10093000C18589B271BB0268D16821F02001D16004
:1009400000230268D16821F48071D1600268516986
:10095000490849005161202280F842204363016B1D
:10096000012915D10363FFF7A8FEFFF7A0FEFAD116
:1009700001680A68D30607D5002200920B6800932D
:10098000046862680092009B818D00F079F901E0B3
:1009900000F040F9002016BD022016BD70B50646D5
:1009A00032681169F06821F4405101431161D36844
:1009B0002A48B168034030690B4371690343F06909
:1009C0000B430343D3605169B06921F44071014383
:1009D000516123498A421CBF2248824202D100F061
:1009E0001BFC01E000F010FC72683568F669192103
:1009F000B6F5004FA1FB00016FF0630412D1D30FD5
:100A0000520000F021FC00F02FF8E40032346420A2
:100A1000B4FBF0F0420002F4F87202EB011200F0B5
:100A2000070010E0930F920000F00EFC00F01CF89D
:100A3000240132346420B4FBF0F000F0F00202EB49
:100A4000011200F00F008018A86070BD00000000C7
:100A500047060008F30600080D070008F369FFFFCA
:100A600000100140001401406421B0FBF1F104FBCF
:100A70000104704710B58B4C8B4860614FF4E13135
:100A8000A1610020E061206260620C21E0622063CD
:100A9000A16204F11400FFF789FB08B100F0DCFC4F
:100AA0006169C86840F01000C86004F1080104F1F1
:100AB0001400BDE810400A22FFF703BC2DE9F047FF
:100AC00086B004461421002201A800F0C7FC236868
:100AD00075498B4279D1002000904FF480667348AD
:100AE000734D4169734F41F0100141614FF000684F
:100AF000416901F0100100910021009A009101224A
:100B0000036843F0010303600223006800F0010062
:100B100000904FF40070009903920321019004911A
:100B200007220293059201A9284600F0A1FC0021AA
:100B30000222039102920721032205910492019659
:100B400001A9284600F094FC5B4DC7F8048005F12C
:100B50007800386040210020F8607861B8617862E0
:100B6000B9604FF480794FF4803A3E61C7F81C9029
:100B7000C7F820A0384600F0BDF808B100F06CFCC2
:100B80000021A7633D66B96607F18405F9667967B8
:100B9000B9672960BC63C7F864803E67C7F87C907A
:100BA000C7F880A007F1600000F0A4F808B100F0D9
:100BB00053FC07F16000E0636C61002200212520F6
:100BC00000F081FD252000F09DFD06B0BDE8F08716
:100BD00001683548814200D070477CB5314C00BF78
:100BE00038A0012200F03FF80420217923782071F9
:100BF000E170324805E06218491C157ADAB25B1CD4
:100C000085540429F7DD012100206170A070237054
:100C100073BD000001682448814200D070477CB554
:100C2000204C00BF29A0002200F01DF82179491CAA
:100C30000920E1702071C9B22378204804F1080628
:100C400004E0755CDAB25B1C8554491C0A29F8DBA8
:100C500023700A2104F1080000F07CFD002101202E
:100C60006170A07073BD6270D0E9006569464FF68F
:100C7000FF73C1E90065082204F11400FFF7D2BA3E
:100C800000B585B04FEA0D0012A1112200F066FDFB
:100C90004FF6FF73112269460948FFF7C3FA05B002
:100CA00000BD0000D001002000100140303802409B
:100CB00000000240100100204064024010000020AB
:100CC000E4010020727868616C660A0072786675CB
:100CD0006C6C0A0072786576656E7463616C6C6228
:100CE00061636C0A0000000001484068704700BF63
:100CF0000000002070B50446FFF7F6FF06460CB969
:100D0000012070BD04F134050220687000212970B3
:100D100000F065F822681068C1070AD5FFF7E4FF04
:100D2000801B0628F6D32020286203216970032047
:100D300070BD1368DFF8580361680340A0680B4377
:100D4000E168034320690B4361690343A0690B43D6
:100D5000E16903430B43216A606A1943042803D104
:100D6000E06A0843216B0143116022685369606A9D
:100D7000DB08042840EAC3030AD1A66AE06A3343C9
:100D800030B1A16991B9002E18BF022E20D017D31F
:100D90005361204600F098F9A96A3F228A40826098
:100DA000012000222A626870002070BDB1F5005F4A
:100DB0000AD1032EECD8DFE806F00D0B0D03E7E7B0
:100DC000B0F1C07FE4D105E0022E03D9F61EDFD1D9
:100DD000C001DDD5402129620120687070BD216805
:100DE00008684008400008607047F8B5044604F100
:100DF0003407002538787E6A012801D10220F2BD2F
:100E000001203870787801281DD14FF0020C87F846
:100E100001C000203862204600F046F9B86A3F2140
:100E200001FA00FCC6F808C02068016841F016010C
:100E30000160F86820B12168086840F00800086087
:100E400000F005F801E03D7002252846F2BD21685A
:100E5000086840F0010008607047F8B5044604F1E6
:100E600034056E6AFFF740FF07466878022805D010
:100E700080212962002028700120F2BD21680868C5
:100E800020F016000860216800F006F904BF6869C8
:100E9000002804D02168086820F008000860FFF7E7
:100EA0009EFF22681168C8070CD5FFF71DFFC01B05
:100EB0000628F6D3202028620321697000202870BC
:100EC0000320F2BDA86A3F218140B16000200121CA
:100ED00069702870F2BD90F83520022A03D0802175
:100EE000416501207047052180F8351001680868C8
:100EF000400840000860002070472DE9FC4106468C
:100F000006F134050020634A00904FF416506F6AD2
:100F100011683C68B1FBF0F8A86A082101FA00F0FA
:100F200004420ED03068026853070AD5026822F0E6
:100F300004020260A86A8140B960296A41F0010197
:100F40002962A86A24FA00F2D1070BD532685169E8
:100F50000A0607D5012101FA00F0B860286A40F0BE
:100F6000020028620421A86A81400C4208D033683C
:100F70001A68900704D5B960286A40F00400286216
:100F80001021A86A81400C421BD033681A681007F0
:100F900017D5B96030680268510307D500680103AE
:100FA0000BD5696969B1304688470AE00168CA050E
:100FB00003D4016821F008010160E96809B13046F5
:100FC0008847A86A202181400C4241D032681068CD
:100FD000C3063DD5B9603068697805291ED102681D
:100FE00022F016020260316800F056F804BF68690A
:100FF000002804D03068016821F0080101603F2218
:10100000A86A8240BA60012169700020E9692870ED
:1010100000293AD03046BDE8FC41084701684A0340
:1010200007D5006801030FD4296989B13046884784
:101030000EE00168CA0507D4016821F010010160C3
:1010400001226A7000202870A96809B130468847DB
:10105000286AD0B1296AC80711D50521697031689D
:10106000FFF7BEFE0098401C8045009003D3326815
:101070001168C807F6D40121697000202870A96999
:1010800019B13046BDE8FC410847BDE8F3810000D6
:101090003F8010F00C000020486920F0800048617B
:1010A000E86800287047000030B50468256825F41A
:1010B0008025256063608068402802D1A260E160DD
:1010C00030BDA160E26030BD10B50146182208684D
:1010D00007A400F0FF03103BB3FBF2F2800AA35C0D
:1010E000CB658002042A28BF001D886510BD000062
:1010F0000006101600061016704770472DE9F041E3
:1011000004000F4654D0494E306800F00F00B8423A
:1011100002D200F073F84BD12168454D880712D5F3
:10112000490703D5A86840F4E050A860207801077B
:1011300003D5A86840F46040A860A968A06821F0C1
:10114000F0010143A9602178C80729D5606801280A
:1011500002D129688A0305E0022818BF032803D1B9
:1011600029688A0103D423E029688A0720D5A96861
:10117000890840EA8100A860FFF7B6FD8046A868AC
:10118000616800F00C00B0EB810F09D0FFF7ACFDF7
:10119000A0EB080041F289318842F0D303202BE014
:1011A000306800F00F00874204D200F027F801D029
:1011B000012021E02078420705D5A968E06821F4E4
:1011C000E0510143A96021780A0706D5A868216982
:1011D00020F4604040EAC100A86000F0CBFAAA68A1
:1011E0001449154BC2F30312895CC84018601348B8
:1011F000006800F0EFFA0020BDE8F0813770316838
:1012000001F00F01B94270470B480D4B00681A6896
:101210000C49C2F3822206E00748094B00681A68AD
:101220000849C2F34232895CC8407047003C024022
:1012300000380240642000080C0000200800002054
:1012400008380240F0200008D3BBD9B1B2F5803F86
:101250005BD2022A1ED98C46B1FBF2F102FB11C30C
:101260001B0443EA1043B3FBF2FC02FB1C3380B2C5
:1012700040EA0343B3FBF2F002FB103240EA0C40B9
:1012800000237047022A05D98446B0FBF2F002FB26
:1012900010C270474AB105D100F0010249085FEA67
:1012A0003000704700220023704700F0B3BA0B00F3
:1012B0000200002100207047F7D30022002370476E
:1012C000904271EB030CF2D370B5B1FA81F4B3FA2A
:1012D00083F52C1BA340C4F1200532FA05F63343F5
:1012E000A2405FF00046E64002E05B085FEA32029F
:1012F000841A71EB030524BF204629467641F4D3B6
:1013000002000B003000002170BD70B5B1FA81F40D
:10131000B2FA82F5C4F120046419B4F12006DAD3DC
:10132000B2405FF00044F440002502E052085FEA5A
:101330003303C61A71EB020E24BF30467146644176
:101340006D41F3D302000B002000290070BD0EE0B8
:1013500002684368024408305FEAC37C44BF4B44E0
:101360005B1E52F804CB43F804CB091FF9D150F8A7
:10137000041B0029ECD1704780B500F04DFA00F055
:1013800065FA00F091FA00F00CF800F0DFFA00F0D6
:1013900049FBFFF76FFB00F07EFAC82000F064FB0A
:1013A000F9E780B592B03021002206A800F056F887
:1013B0001421002201A800F051F800200090012221
:1013C0002348016841F080510160006800F08050BE
:1013D00000900020009900901E48016841F44041AF
:1013E00001604FF48031006800F44040009006A88E
:1013F000009B0692079102224FF480010C920D91FE
:1014000019224FF4B4710E920F910222042110920E
:10141000119100F03DFB08B100F01EF800F0C2FC95
:1014200008B100F019F800210222039102920F2066
:101430004FF4805101904FF4A05205910492052180
:1014400001A8FFF75BFE08B100F006F813B000BD7D
:10145000403802400070004072B6FEE74018491C58
:101460001CBFB1F1010100F8012DF9D17047000056
:101470002DE9F84F0022DFF8EC41DFF8EC814FF066
:101480000F0901230F6893401F409F4240F0D7800F
:101490004FEA420C032505FA0CF56FEA050E4D687C
:1014A00005F00306012E1CBF05F00305022D10D127
:1014B0008668CD680EEA060605FA0CF52E438660AE
:1014C000456825EA03034D68C5F3001595402B4395
:1014D000436093000D7905F00305032D1ED0C66807
:1014E0008D680EEA060605FA0CF52E43C6600E79E5
:1014F00006F00306022E11D1D50800EB850503F096
:101500001C06D5F820B009FA06FA2BEA0A0BD1F826
:1015100010A00AFA06F646EA0B062E6205680EEAE5
:1015200005060D7905F0030505FA0CF545EA060CEC
:10153000C0F800C04D6815F4403F00F080804FF0C7
:10154000000ECDF800E04FEA920CD8F8005045F4B8
:101550008045C8F8005003F00C03D8F800E0434D74
:101560000EF4804ECDF800E009FA03F6DDF800E055
:1015700055F82C50B5433E4EB04208BF4FF0000E18
:1015800036D03C4EB04208BF4FF0010E30D03A4E3C
:10159000B04208BF4FF0020E2AD0384EB04208BF0A
:1015A0004FF0030E24D0364EB04208BF4FF0040E69
:1015B0001ED0344EB04208BF4FF0050E18D0324E48
:1015C000B04208BF4FF0060E12D0304EB04208BFF6
:1015D0004FF0070E0CD02E4EB04208BF4FF0080E51
:1015E00006D02C4EB0420CBF4FF0090E4FF00A0E41
:1015F0000EFA03F3DFF874E02B434EF82C30FE4371
:10160000A3684D683340ED0248BF3B43A360E368E5
:101610004D683340AD0248BF3B43E36063684D68AB
:101620003340AD0348BF3B436360236806EA030CC5
:101630004B68DB0348BF47EA0C0CC4F800C0521CDF
:101640000F2A7FF61EAFBDE8F18F02B90904816150
:101650007047436901EA0302994341EA024181610B
:1016600070470000003C0140443802400838014007
:10167000000002400004024000080240000C02404A
:10168000001002400014024000180240001C0240FA
:1016900000200240002402400A01010002D4274B2E
:1016A0005A547047264801F00F01014401F8042CF8
:1016B000704724490A6860F30A2240F2FA5060F346
:1016C0001F420A60704770B51E4C2368C3F30223A3
:1016D0000124C3F10705052D2FBF0F26C3F107060F
:1016E00004FA06F6761E1D1D072D34BF0023DB1EEF
:1016F0003140994004FA03F3BDE870405B1E1A4084
:101700001143C9E7010007D4012200F01F010E4B6D
:101710008A40400943F820207047401EB0F1807F86
:1017200001D30120704709494860F022084802703F
:1017300000238B6007220A600020704700E400E06D
:1017400018ED00E00CED00E000E100E010E000E04A
:1017500023ED00E0002200F05FBB00004AB1000072
:1017600011F8013B521E00F8013B1CBF11F8013B70
:10177000F8E7704730B5144C606800F00C0004289E
:1017800002D0082802D01DE0104830BD2268216830
:101790000023480202F03F0204D525680B48C5F338
:1017A000881103E021680A48C1F38811A0FB0101F8
:1017B000FFF74AFD2168C1F30141491C4900B0FB14
:1017C000F1F030BD024830BD0438024040787D0160
:1017D0000024F40038B50D4D0D4A297804464FF425
:1017E0007A731068B3FBF1F1B0FBF1F0FFF795FFEE
:1017F00050B9102C08D2002221464FF0FF30FFF7DD
:1018000062FFAC60002032BD012032BD000000202C
:101810000C0000207047000080B50B48016841F4BF
:1018200000710160026842F480620260016841F464
:10183000807101600320FFF73CFF0F20FFF7CAFF14
:1018400000F004FB002002BD003C024010B586B051
:101850001421002201A8FFF701FE00211048114CBD
:1018600000910321026842F0020202600122006836
:1018700000F00200009000982046FFF7E6FE0320EB
:1018800001210190029103910491204601A9FFF7E3
:10189000EFFD06B010BD01210248FFF7DABE0000DF
:1018A000303802400004024080B586B01421002286
:1018B00001A8FFF7D3FD002120480091026842F003
:1018C00004020260016801F0040100910021009B04
:1018D0000091026842F080020260016801F080011C
:1018E00000910021009A00910022036843F0010357
:1018F0000360006800F0010000900820009901904A
:1019000001210391029201A90D48FFF7B1FD0120C9
:101910000021019002910222039201A90948FFF7D8
:10192000A7FD0C200121019000220391029201A940
:101930000548FFF79DFD07B000BD000030380240AC
:101940000008024000000240001C024010B586B0B2
:10195000142100226846FFF781FD00212548264C0E
:101960000591026842F004020260016801F004017E
:1019700000F04AF842F080020260016801F0800144
:1019800000F042F842F001020260016801F001013A
:1019900005910021059A05910122036843F0020395
:1019A00003600321006800F00200059005982046BE
:1019B000FFF74BFE082000F02DF81048FFF758FD08
:1019C0000120022100F027F80D48FFF751FD0C20FF
:1019D00000F020F80B48FFF74BFD03200121009099
:1019E00001910291039120466946FFF741FD06B03F
:1019F00010BD0000303802400004024000080240E0
:101A000000000240001C024005910021059B059149
:101A100002687047012100900022029101926946FC
:101A20007047000080B50020009000220D4801683A
:101A300041F4800101600021006800F48000009002
:101A40003A20009BFFF73FFE3A20FFF75BFE0022A3
:101A500000214620FFF737FEBDE802404620FFF791
:101A600051BE00BF3038024038B50546FFF73CF99B
:101A700015F1010F044602D0044908782D18FFF72C
:101A800033F9001BA842FAD331BD00BF000000208B
:101A90002DE9F843040016D02078DFF8F862C1077A
:101AA00013D5B06800F00C00042807D0B06800F02F
:101AB0000C0008283DD1706841023AD53068810396
:101AC00003D56068002800F05F812078B24F81075D
:101AD00019D5B06810F00C0F07D0B06800F00C00FA
:101AE00008285CD17068410259D43068810703D559
:101AF000E068012840F048813168206921F0F80150
:101B000041EAC00131602178080773D56069A349B3
:101B1000002862D001220A60FFF7E6F80546706FE0
:101B2000810767D4FFF7E0F8401B0228F7D90320AC
:101B30002DE16068B0F5803F03D1306840F480301B
:101B400012E0B0F5A02F08D1306840F4802030605A
:101B5000316841F48031316007E0326822F480322C
:101B60003260306820F480203060606858B1FFF740
:101B7000BBF8054631688803A7D4FFF7B5F8401BCA
:101B80006528F7D3D3E7FFF7AFF805463168880338
:101B90009BD5FFF7A9F8401B6528F7D3C7E7E06896
:101BA00068B101213960FFF79FF805463068810769
:101BB000A2D4FFF799F8401B0228F7D9B7E7002213
:101BC0003A60FFF791F80546316888079BD5FFF723
:101BD0008BF8401B0228F7D9A9E70860FFF784F8C3
:101BE0000546716F880705D5FFF77EF8401B022870
:101BF000F7D99CE72078410760D5306C0025C100FB
:101C00000BD4002000900125316C41F080513164EB
:101C1000306C00F0805000900098DFF88481D8F894
:101C20000000C10513D4D8F8000040F48070C8F853
:101C30000000FFF759F88146D8F80010C80506D40F
:101C4000FFF752F8A0EB09000228F5D96FE7A0686A
:101C5000012805D00528306F06D140F00400306718
:101C6000306F40F0010005E0400840003067306F01
:101C700020F00400306741F28938A06860B1FFF7B6
:101C800033F88146316F880713D4FFF72DF8A0EBA6
:101C900009004045F6D34AE7FFF726F88146316F41
:101CA000880706D5FFF720F8A0EB09004045F6D3DA
:101CB0003DE71DB1306C20F080503064A0690028F1
:101CC00064D0B16801F00C0108293AD002282AD169
:101CD00000203866FFF708F805463068810105D511
:101CE000FFF702F8401B0228F7D920E7E269206AD3
:101CF000616A0243A06A400842EA8112401E42EA39
:101D00000042E06A42EA0062726001213966FEF731
:101D1000EBFF04463068810138D4FEF7E5FF001B75
:101D20000228F7D903E700203866FEF7DDFF0446F6
:101D3000306881012AD5FEF7D7FF001B0228F7D9AA
:101D4000F5E6012820D07068E16900F480028A423B
:101D500002BF00F03F02216A8A4201BF47F6C0720B
:101D60000240616AB2EB811F0ED1A16A00F44032D9
:101D700002F580324908B2EB014F02BF00F07060FB
:101D8000E16AB0EB016F01D0012000E00020BDE866
:101D9000F28300BF0038024000004742800E4742F5
:101DA00000700040F8B500F020F801200099206094
:101DB000FEF79AFF07463168C80306D4FEF794FF82
:101DC000C01BA842F7D30320F2BD01206060FEF7DC
:101DD0008BFF04463168880305D4FEF785FF001B9E
:101DE000A842F7D3EFE70020F2BD0020009040F2B8
:101DF000E9350748074C0168044E41F08051016005
:101E0000006800F0805000907047000004700040AF
:101E10004038024040000E4200B500BF1300964615
:101E20009446103928BFA0E80C50FAD85FEA417CEC
:101E300028BF0CC048BF40F8042BC90728BF20F8B2
:101E4000022B48BF00F8012B00BD000081B000202C
:101E500000900B48416841F480414160416801F4C1
:101E6000804100910021009B0091026842F0805265
:101E70000260006800F080500090009801B0704748
:101E800040380240FEE7FEE7FEE7FEE7FEE7704768
:101E90007047704700F07CB82DE9FC47DFF8C4A01C
:101EA000DAF800100A68D0064BD52F4A106845684A
:101EB00000230093C5F10A050A680092002D4968C5
:101EC000009100983DD05046FEF715FA2EA0274EFF
:101ED000DFF89C80DFF89C90274FD0E90013CDE914
:101EE000001308224FF6FF7369465046FEF79AF931
:101EF000327898F9004099F800002049AD1830B9BF
:101F0000681EC3B293420BDB00F020F8F9E7521CC5
:101F1000681FD2B201E000F019F8C3B29342FADAB6
:101F20000A21384600F03CF8154988F800400020A6
:101F30000870307089F800000A2239465046FEF7D2
:101F4000C0F95046FEF71AFABDE8F387BD5C63B2EC
:101F5000641CCD54521C70470348FEF7CEBF09489D
:101F6000FEF7CBBFE401002070010020D401002067
:101F7000D0010020D1010020D80100201000002055
:101F8000D301002010010020727869646C650A009A
:101F900002484268017851184160704700000020F3
:101FA0000022FFF75BBA30B4002412E050F8043B83
:101FB000DA0744BF4B445B1E091F042943F8044B56
:101FC000FAD21A468D0744BF1C80921CCB0748BF2B
:101FD000147050F8041B0029E8D130BC7047000091
:101FE00010B5034A7A440832024C7C44A41D03E035
:101FF000400000006000000004E01168101D114462
:1020000088470246A242F8D110BD00004EF6885122
:10201000CEF20001086840F470000860BFF34F8FF3
:10202000BFF36F8F4FF00170E1EE100A70470000B0
:1020300077FFFFFF1C0200001000002000000000DE
:102040000FF3FFFF100000009800000000000020C8
:10205000000000000249086840F470000860704702
:1020600088ED00E000000000000000000102030411
:102070000607080900F00DF8002801D0FFF7B0FFAF
:10208000AFF300800020AFF30080FFF775F900F098
:1020900002F80120704700F001B8000007463846FA
:1020A00000F002F8FBE70000202109032631182088
:1020B000ABBEF9E70548014603B4684680F30988DA
:1020C000AFF30080FFF7A2FFFFF7D4FFA5EDF5FE09
:1020D000014880470148004755200008B520000806
:1020E0000100000000000000100000000024F400C7
:1020F0000000000001020304FFF7FEBFFFF7FEBF70
:10210000FFF7FEBFFFF7FEBFFFF7FEBFFFF7FEBF03
:10211000FFF7FEBFFFF7FEBFFFF7FEBFFFF7FEBFF3
:10212000FFF7FEBFFFF7FEBFFFF7FEBFFFF7FEBFE3
:10213000FFF7FEBFFFF7FEBFFFF7FEBFFFF7FEBFD3
:10214000FFF7FEBFFFF7FEBFFFF7FEBFFFF7FEBFC3
:10215000FFF7FEBFFFF7FEBFFFF7FEBFFFF7FEBFB3
:10216000FFF7FEBFFFF7FEBFFFF7FEBFFFF7FEBFA3
:10217000FFF7FEBFFFF7FEBFFFF7FEBFFFF7FEBF93
:10218000FFF7FEBFFFF7FEBFFFF7FEBFFFF7FEBF83
:10219000FFF7FEBFFFF7FEBFFFF7FEBFFFF7FEBF73
:1021A000FFF7FEBFFFF7FEBFFFF7FEBFFFF7FEBF63
:1021B000FFF7FEBFFFF7FEBFFFF7FEBFFFF7FEBF53
:1021C000FFF7FEBFFFF7FEBFFFF7FEBFFFF7FEBF43
:1021D000FFF7FEBFFFF7FEBFFFF7FEBFFFF7FEBF33
:1021E000FFF7FEBFFFF7FEBFFFF7FEBFFFF7FEBF23
:1021F000FFF7FEBFFFF7FEBFFFF7FEBFFFF7FEBF13
:10220000FFF7FEBFFFF7FEBFFFF7FEBFFFF7FEBF02
:10221000FFF7FEBFFFF7FEBFFFF7FEBFFFF7FEBFF2
:10222000FFF7FEBFFFF7FEBFFFF7FEBFFFF7FEBFE2
:10223000FFF7FEBFFFF7FEBFFFF7FEBFFFF7FEBFD2
:10224000FFF7FEBFFFF7FEBFFFF7FEBFFFF7FEBFC2
:04225000FFF7FEBFD7
:04000005080020B51A
:00000001FF
